{"abi":[{"type":"constructor","inputs":[{"name":"admin","type":"address","internalType":"address"},{"name":"oracle","type":"address","internalType":"address"},{"name":"_treasury","type":"address","internalType":"address"}],"stateMutability":"nonpayable"},{"type":"function","name":"ADMIN_ROLE","inputs":[],"outputs":[{"name":"","type":"bytes32","internalType":"bytes32"}],"stateMutability":"view"},{"type":"function","name":"CLAIM_WINDOW","inputs":[],"outputs":[{"name":"","type":"uint64","internalType":"uint64"}],"stateMutability":"view"},{"type":"function","name":"DEFAULT_ADMIN_ROLE","inputs":[],"outputs":[{"name":"","type":"bytes32","internalType":"bytes32"}],"stateMutability":"view"},{"type":"function","name":"DEFAULT_MIN_BET","inputs":[],"outputs":[{"name":"","type":"uint128","internalType":"uint128"}],"stateMutability":"view"},{"type":"function","name":"DEFAULT_TIMEOUT","inputs":[],"outputs":[{"name":"","type":"uint64","internalType":"uint64"}],"stateMutability":"view"},{"type":"function","name":"MAX_FEE_BPS","inputs":[],"outputs":[{"name":"","type":"uint16","internalType":"uint16"}],"stateMutability":"view"},{"type":"function","name":"ORACLE_ROLE","inputs":[],"outputs":[{"name":"","type":"bytes32","internalType":"bytes32"}],"stateMutability":"view"},{"type":"function","name":"bets","inputs":[{"name":"","type":"bytes32","internalType":"bytes32"},{"name":"","type":"address","internalType":"address"}],"outputs":[{"name":"amount","type":"uint128","internalType":"uint128"},{"name":"side","type":"uint8","internalType":"uint8"},{"name":"claimed","type":"bool","internalType":"bool"}],"stateMutability":"view"},{"type":"function","name":"cancelMatch","inputs":[{"name":"matchId","type":"bytes32","internalType":"bytes32"}],"outputs":[],"stateMutability":"nonpayable"},{"type":"function","name":"claimPayout","inputs":[{"name":"matchId","type":"bytes32","internalType":"bytes32"}],"outputs":[],"stateMutability":"nonpayable"},{"type":"function","name":"claimWindow","inputs":[],"outputs":[{"name":"","type":"uint64","internalType":"uint64"}],"stateMutability":"view"},{"type":"function","name":"createMatch","inputs":[{"name":"matchId","type":"bytes32","internalType":"bytes32"},{"name":"fighterA","type":"address","internalType":"address"},{"name":"fighterB","type":"address","internalType":"address"},{"name":"minBet","type":"uint128","internalType":"uint128"},{"name":"bettingWindow","type":"uint64","internalType":"uint64"}],"outputs":[],"stateMutability":"nonpayable"},{"type":"function","name":"feeBps","inputs":[],"outputs":[{"name":"","type":"uint16","internalType":"uint16"}],"stateMutability":"view"},{"type":"function","name":"getRoleAdmin","inputs":[{"name":"role","type":"bytes32","internalType":"bytes32"}],"outputs":[{"name":"","type":"bytes32","internalType":"bytes32"}],"stateMutability":"view"},{"type":"function","name":"grantRole","inputs":[{"name":"role","type":"bytes32","internalType":"bytes32"},{"name":"account","type":"address","internalType":"address"}],"outputs":[],"stateMutability":"nonpayable"},{"type":"function","name":"hasRole","inputs":[{"name":"role","type":"bytes32","internalType":"bytes32"},{"name":"account","type":"address","internalType":"address"}],"outputs":[{"name":"","type":"bool","internalType":"bool"}],"stateMutability":"view"},{"type":"function","name":"lockMatch","inputs":[{"name":"matchId","type":"bytes32","internalType":"bytes32"}],"outputs":[],"stateMutability":"nonpayable"},{"type":"function","name":"matchTimeout","inputs":[],"outputs":[{"name":"","type":"uint64","internalType":"uint64"}],"stateMutability":"view"},{"type":"function","name":"matches","inputs":[{"name":"","type":"bytes32","internalType":"bytes32"}],"outputs":[{"name":"fighterA","type":"address","internalType":"address"},{"name":"fighterB","type":"address","internalType":"address"},{"name":"status","type":"uint8","internalType":"enum RawlBetting.MatchStatus"},{"name":"winner","type":"uint8","internalType":"enum RawlBetting.MatchWinner"},{"name":"sideABetCount","type":"uint32","internalType":"uint32"},{"name":"sideBBetCount","type":"uint32","internalType":"uint32"},{"name":"winningBetCount","type":"uint32","internalType":"uint32"},{"name":"betCount","type":"uint32","internalType":"uint32"},{"name":"feeBps","type":"uint16","internalType":"uint16"},{"name":"sideATotal","type":"uint128","internalType":"uint128"},{"name":"sideBTotal","type":"uint128","internalType":"uint128"},{"name":"createdAt","type":"uint64","internalType":"uint64"},{"name":"lockTimestamp","type":"uint64","internalType":"uint64"},{"name":"resolveTimestamp","type":"uint64","internalType":"uint64"},{"name":"cancelTimestamp","type":"uint64","internalType":"uint64"},{"name":"minBet","type":"uint128","internalType":"uint128"},{"name":"bettingWindow","type":"uint64","internalType":"uint64"},{"name":"feesWithdrawn","type":"bool","internalType":"bool"}],"stateMutability":"view"},{"type":"function","name":"pause","inputs":[],"outputs":[],"stateMutability":"nonpayable"},{"type":"function","name":"paused","inputs":[],"outputs":[{"name":"","type":"bool","internalType":"bool"}],"stateMutability":"view"},{"type":"function","name":"placeBet","inputs":[{"name":"matchId","type":"bytes32","internalType":"bytes32"},{"name":"side","type":"uint8","internalType":"uint8"}],"outputs":[],"stateMutability":"payable"},{"type":"function","name":"refundBet","inputs":[{"name":"matchId","type":"bytes32","internalType":"bytes32"}],"outputs":[],"stateMutability":"nonpayable"},{"type":"function","name":"refundNoWinners","inputs":[{"name":"matchId","type":"bytes32","internalType":"bytes32"}],"outputs":[],"stateMutability":"nonpayable"},{"type":"function","name":"renounceRole","inputs":[{"name":"role","type":"bytes32","internalType":"bytes32"},{"name":"callerConfirmation","type":"address","internalType":"address"}],"outputs":[],"stateMutability":"nonpayable"},{"type":"function","name":"resolveMatch","inputs":[{"name":"matchId","type":"bytes32","internalType":"bytes32"},{"name":"winner","type":"uint8","internalType":"uint8"}],"outputs":[],"stateMutability":"nonpayable"},{"type":"function","name":"revokeRole","inputs":[{"name":"role","type":"bytes32","internalType":"bytes32"},{"name":"account","type":"address","internalType":"address"}],"outputs":[],"stateMutability":"nonpayable"},{"type":"function","name":"supportsInterface","inputs":[{"name":"interfaceId","type":"bytes4","internalType":"bytes4"}],"outputs":[{"name":"","type":"bool","internalType":"bool"}],"stateMutability":"view"},{"type":"function","name":"sweepCancelled","inputs":[{"name":"matchId","type":"bytes32","internalType":"bytes32"},{"name":"bettor","type":"address","internalType":"address"}],"outputs":[],"stateMutability":"nonpayable"},{"type":"function","name":"sweepUnclaimed","inputs":[{"name":"matchId","type":"bytes32","internalType":"bytes32"},{"name":"bettor","type":"address","internalType":"address"}],"outputs":[],"stateMutability":"nonpayable"},{"type":"function","name":"timeoutMatch","inputs":[{"name":"matchId","type":"bytes32","internalType":"bytes32"}],"outputs":[],"stateMutability":"nonpayable"},{"type":"function","name":"treasury","inputs":[],"outputs":[{"name":"","type":"address","internalType":"address"}],"stateMutability":"view"},{"type":"function","name":"unpause","inputs":[],"outputs":[],"stateMutability":"nonpayable"},{"type":"function","name":"updateConfig","inputs":[{"name":"newFeeBps","type":"uint16","internalType":"uint16"},{"name":"newTimeout","type":"uint64","internalType":"uint64"},{"name":"newTreasury","type":"address","internalType":"address"}],"outputs":[],"stateMutability":"nonpayable"},{"type":"function","name":"withdrawFees","inputs":[{"name":"matchId","type":"bytes32","internalType":"bytes32"}],"outputs":[],"stateMutability":"nonpayable"},{"type":"event","name":"BetPlaced","inputs":[{"name":"matchId","type":"bytes32","indexed":true,"internalType":"bytes32"},{"name":"bettor","type":"address","indexed":true,"internalType":"address"},{"name":"side","type":"uint8","indexed":false,"internalType":"uint8"},{"name":"amount","type":"uint256","indexed":false,"internalType":"uint256"}],"anonymous":false},{"type":"event","name":"BetRefunded","inputs":[{"name":"matchId","type":"bytes32","indexed":true,"internalType":"bytes32"},{"name":"bettor","type":"address","indexed":true,"internalType":"address"},{"name":"amount","type":"uint256","indexed":false,"internalType":"uint256"}],"anonymous":false},{"type":"event","name":"CancelledSwept","inputs":[{"name":"matchId","type":"bytes32","indexed":true,"internalType":"bytes32"},{"name":"bettor","type":"address","indexed":true,"internalType":"address"},{"name":"amount","type":"uint256","indexed":false,"internalType":"uint256"}],"anonymous":false},{"type":"event","name":"ConfigUpdated","inputs":[{"name":"field","type":"string","indexed":false,"internalType":"string"},{"name":"value","type":"uint256","indexed":false,"internalType":"uint256"}],"anonymous":false},{"type":"event","name":"FeesWithdrawn","inputs":[{"name":"matchId","type":"bytes32","indexed":true,"internalType":"bytes32"},{"name":"amount","type":"uint256","indexed":false,"internalType":"uint256"},{"name":"treasury","type":"address","indexed":false,"internalType":"address"}],"anonymous":false},{"type":"event","name":"MatchCancelled","inputs":[{"name":"matchId","type":"bytes32","indexed":true,"internalType":"bytes32"},{"name":"timestamp","type":"uint64","indexed":false,"internalType":"uint64"}],"anonymous":false},{"type":"event","name":"MatchCreated","inputs":[{"name":"matchId","type":"bytes32","indexed":true,"internalType":"bytes32"},{"name":"fighterA","type":"address","indexed":false,"internalType":"address"},{"name":"fighterB","type":"address","indexed":false,"internalType":"address"},{"name":"minBet","type":"uint128","indexed":false,"internalType":"uint128"},{"name":"bettingWindow","type":"uint64","indexed":false,"internalType":"uint64"},{"name":"feeBps","type":"uint16","indexed":false,"internalType":"uint16"}],"anonymous":false},{"type":"event","name":"MatchLocked","inputs":[{"name":"matchId","type":"bytes32","indexed":true,"internalType":"bytes32"},{"name":"timestamp","type":"uint64","indexed":false,"internalType":"uint64"}],"anonymous":false},{"type":"event","name":"MatchResolved","inputs":[{"name":"matchId","type":"bytes32","indexed":true,"internalType":"bytes32"},{"name":"winner","type":"uint8","indexed":false,"internalType":"uint8"},{"name":"sideATotal","type":"uint128","indexed":false,"internalType":"uint128"},{"name":"sideBTotal","type":"uint128","indexed":false,"internalType":"uint128"},{"name":"timestamp","type":"uint64","indexed":false,"internalType":"uint64"}],"anonymous":false},{"type":"event","name":"NoWinnersRefunded","inputs":[{"name":"matchId","type":"bytes32","indexed":true,"internalType":"bytes32"},{"name":"bettor","type":"address","indexed":true,"internalType":"address"},{"name":"amount","type":"uint256","indexed":false,"internalType":"uint256"}],"anonymous":false},{"type":"event","name":"Paused","inputs":[{"name":"account","type":"address","indexed":false,"internalType":"address"}],"anonymous":false},{"type":"event","name":"PayoutClaimed","inputs":[{"name":"matchId","type":"bytes32","indexed":true,"internalType":"bytes32"},{"name":"bettor","type":"address","indexed":true,"internalType":"address"},{"name":"amount","type":"uint256","indexed":false,"internalType":"uint256"}],"anonymous":false},{"type":"event","name":"RoleAdminChanged","inputs":[{"name":"role","type":"bytes32","indexed":true,"internalType":"bytes32"},{"name":"previousAdminRole","type":"bytes32","indexed":true,"internalType":"bytes32"},{"name":"newAdminRole","type":"bytes32","indexed":true,"internalType":"bytes32"}],"anonymous":false},{"type":"event","name":"RoleGranted","inputs":[{"name":"role","type":"bytes32","indexed":true,"internalType":"bytes32"},{"name":"account","type":"address","indexed":true,"internalType":"address"},{"name":"sender","type":"address","indexed":true,"internalType":"address"}],"anonymous":false},{"type":"event","name":"RoleRevoked","inputs":[{"name":"role","type":"bytes32","indexed":true,"internalType":"bytes32"},{"name":"account","type":"address","indexed":true,"internalType":"address"},{"name":"sender","type":"address","indexed":true,"internalType":"address"}],"anonymous":false},{"type":"event","name":"UnclaimedSwept","inputs":[{"name":"matchId","type":"bytes32","indexed":true,"internalType":"bytes32"},{"name":"bettor","type":"address","indexed":true,"internalType":"address"},{"name":"amount","type":"uint256","indexed":false,"internalType":"uint256"}],"anonymous":false},{"type":"event","name":"Unpaused","inputs":[{"name":"account","type":"address","indexed":false,"internalType":"address"}],"anonymous":false},{"type":"error","name":"AccessControlBadConfirmation","inputs":[]},{"type":"error","name":"AccessControlUnauthorizedAccount","inputs":[{"name":"account","type":"address","internalType":"address"},{"name":"neededRole","type":"bytes32","internalType":"bytes32"}]},{"type":"error","name":"AlreadyBet","inputs":[]},{"type":"error","name":"AlreadyClaimed","inputs":[]},{"type":"error","name":"BetBelowMinimum","inputs":[{"name":"min","type":"uint128","internalType":"uint128"}]},{"type":"error","name":"BetOnLosingSide","inputs":[]},{"type":"error","name":"BettingWindowClosed","inputs":[]},{"type":"error","name":"ClaimWindowNotElapsed","inputs":[]},{"type":"error","name":"EnforcedPause","inputs":[]},{"type":"error","name":"ExpectedPause","inputs":[]},{"type":"error","name":"FeesAlreadyWithdrawn","inputs":[]},{"type":"error","name":"InvalidFeeBps","inputs":[]},{"type":"error","name":"InvalidMatchStatus","inputs":[]},{"type":"error","name":"InvalidSide","inputs":[]},{"type":"error","name":"InvalidTimeout","inputs":[]},{"type":"error","name":"MatchAlreadyExists","inputs":[]},{"type":"error","name":"MatchNotCancelled","inputs":[]},{"type":"error","name":"MatchNotLocked","inputs":[]},{"type":"error","name":"MatchNotOpen","inputs":[]},{"type":"error","name":"MatchNotResolved","inputs":[]},{"type":"error","name":"NoBetFound","inputs":[]},{"type":"error","name":"ReentrancyGuardReentrantCall","inputs":[]},{"type":"error","name":"TimeoutNotElapsed","inputs":[]},{"type":"error","name":"TransferFailed","inputs":[]},{"type":"error","name":"WinnersExist","inputs":[]},{"type":"error","name":"WinningBetsRemaining","inputs":[]},{"type":"error","name":"ZeroBetAmount","inputs":[]}],"bytecode":{"object":"0x608034620000fe57601f620021bb38819003918201601f19168301916001600160401b038311848410176200010257808492606094604052833981010312620000fe576200009a620000518262000116565b91620000936200007260406200006a6020850162000116565b930162000116565b936001805560ff19600254166002556200008c816200012b565b506200019b565b506200023b565b5060028054610100600160b81b03191660089290921b610100600160a81b031691909117604b60aa1b17600160b81b600160f81b03191660e160bb1b179055600380546001600160401b03191662278d00179055604051611ea59081620002d68239f35b5f80fd5b634e487b7160e01b5f52604160045260245ffd5b51906001600160a01b0382168203620000fe57565b6001600160a01b03165f8181525f805160206200219b833981519152602052604090205460ff1662000196575f8181525f805160206200219b83398151915260205260408120805460ff191660011790553391905f805160206200217b8339815191528180a4600190565b505f90565b6001600160a01b03165f8181527f7d7ffb7a348e1c6a02869081a26547b49160dd3df72d1d75a570eb9b698292ec60205260409020547fa49807205ce4d355092ef5a8a18f56e8913cf4a201fbe287825b095693c21775919060ff166200023557815f525f60205260405f20815f5260205260405f20600160ff1982541617905533915f805160206200217b8339815191525f80a4600190565b50505f90565b6001600160a01b03165f8181527fa629f6981c2f6895a67dc766e8e03ff72d04a413d0d8773a3ca56e9e474032c160205260409020547f68e79a7bf1e0bc45d0a330c573bc367f9cf464fd326078812f301165fbda4ef1919060ff166200023557815f525f60205260405f20815f5260205260405f20600160ff1982541617905533915f805160206200217b8339815191525f80a460019056fe608060409080825260049081361015610016575f80fd5b5f3560e01c90816301ffc9a714611a405750806307e2cea514611a065780630e52bb49146117695780631368711e1461173f578063248a9ca31461171557806324a9d853146116f05780632f2ff15d146116c757806336568abe146116825780633766c4451461159257806338de5aae146113bf5780633f4ba83a1461135757806343f5b057146112945780635c975abb1461127157806361d027b31461124557806372c7606a146110de57806375b238fc146110a45780638456cb591461104b5780638a5dc9f614610ee55780638f6e689b14610e8157806391d1485414610e3d5780639add92e414610e215780639f34fc8014610e045780639f791b8014610c545780639fe9ada314610b0d578063a217fddf14610af3578063ac901ba314610ad2578063b169e3ec146108f5578063b4c634711461074e578063c5d37ae114610727578063c82db8f914610637578063d547741f146105fb578063d55be8c6146105df578063df320b29146104e8578063ebb71194146103325763f8da90cf146101a1575f80fd5b3461032e578160031936011261032e578035906101bc611ab2565b926101c5611bc3565b825f5281602052805f209160ff600184015460a01c16600581101561031b57810361030d576001600160401b036102088183860154851c16826003541690611ade565b1642106102ff57835f526005602052815f209460018060a01b031694855f52602052815f20928354936001600160801b0385169485156102ef5760ff8160881c166102df5760ff60881b1916600160881b179055600201805467ffffffff00000000198116602091821c63ffffffff165f190190911b63ffffffff60201b161790555f80808086895af161029a611b3b565b50156102d157507f31fd6e4f9211b6a250eed3c5a65086784ca62cdddbc7670f97bf2e10e17bad859160209151908152a360018055005b90516312171d8360e31b8152fd5b8451630c8d9eab60e31b81528490fd5b845163c68bdd8160e01b81528490fd5b9051635f4329ad60e11b8152fd5b9051630b56b7c560e01b8152fd5b602182634e487b7160e01b5f525260245ffd5b5f80fd5b50903461032e57602036600319011261032e57813590610350611be6565b610358611bc3565b815f5282602052805f2060ff600182015460a01c1660058110156104d5576003036104c2576005810180549160ff83851c166104b25760028101549063ffffffff82166104a2576001600160401b036103bb818984015416826003541690611ade565b164210610492576127109161ffff6103eb60036103f5946001600160801b03918291015416908460501c16611b98565b91871c1690611b28565b044781101561048557600160401b90925b68ff0000000000000000191617905560018060a01b035f808080858560025460081c165af1610433611b3b565b5015610475577f10ba699e7d5e1ccd327b296934ff28d07ec07358b636782f2c361adcd4123ae593945060025460081c1682519182526020820152a260018055005b82516312171d8360e31b81528590fd5b50600160401b4792610406565b8451635f4329ad60e11b81528790fd5b845163022fc76b60e41b81528790fd5b835163d6d1c33b60e01b81528690fd5b8151600162244bd160e11b031981528490fd5b602185634e487b7160e01b5f525260245ffd5b50903461032e5760208060031936011261032e57823591610507611bc3565b825f52838252805f209360ff600186015460a01c16600581101561031b57810361030d57835f5260058352815f20335f528352815f20948554956001600160801b0387169687156102ef5760ff8160881c166102df5760ff60881b1916600160881b179055600201805467ffffffff0000000019811690851c63ffffffff165f190160201b63ffffffff60201b161790555f80808088335af16105a8611b3b565b50156102d15750907f57f542d767287314b1c4f145c240b45cac08f5448a00dc9c4af31cfe74d895ae91519384523393a360018055005b823461032e575f36600319011261032e57602090516103e88152f35b50903461032e578060031936011261032e576106359135610630600161061f611ab2565b93835f525f6020525f200154611cba565b611d57565b005b503461032e57602036600319011261032e57803591610654611be6565b825f5281602052805f2060018101805460ff8160a01c1660058110156107145760018114159081610708575b506106f85760ff60a01b1916600160a21b179055909101805467ffffffffffffffff60401b191642604081901b67ffffffffffffffff60401b16919091179091557f61e355ec7d2ed077067943504c7eae1589d3efd81478423c2e2347ebc0c0df01916020916001600160401b0316905b51908152a2005b50505051636bc0f2cb60e11b8152fd5b6002915014155f610680565b602186634e487b7160e01b5f525260245ffd5b823461032e575f36600319011261032e576020906001600160401b03600354169051908152f35b50903461032e5760208060031936011261032e5782359161076d611bc3565b825f52838252805f209360018501549460ff8660a01c1660058110156108e2576003036108d057845f5260058452825f20335f528452825f208054966001600160801b0388169081156108c05760ff8960881c166108b05760a81c60ff1660038110156104d5576001036108a75760ff5f5b1660ff8960801c160361089757916002916107fd6108509483611dc9565b60ff60881b19909916600160881b17905501805467ffffffffffffffff19811663ffffffff8083165f19908101821692831763ffffffff19909416909217881c160160201b63ffffffff60201b16179055565b5f80808088335af1610860611b3b565b50156102d15750907f038b0cdf6318f158304d2b2f11b821333b4e69a21d83e945b6a741e1bbfc234b91519384523393a360018055005b845163d5da0f3960e01b81528490fd5b60ff60016107df565b8551630c8d9eab60e31b81528590fd5b855163c68bdd8160e01b81528590fd5b509051600162244bd160e11b03198152fd5b602183634e487b7160e01b5f525260245ffd5b503461032e578160031936011261032e57803590610911611ab2565b9261091a611be6565b610922611bc3565b825f5281602052805f2091600183015460ff8160a01c1660058110156108e2576003036108d0576001600160401b03610965818487015416826003541690611ade565b164210610ac357845f526005602052825f209560018060a01b0380911696875f52602052835f20948554926001600160801b038416908115610ab35760ff8560881c16610aa35760a81c60ff16600381101561071457600103610a9a5760ff5f5b1660ff8560801c1603610a8a575f938493610a426002856109ea8897968897611dc9565b9b8c95600160881b9060ff60881b191617905501805463ffffffff9081871991818381831601169063ffffffff19161780855560201c16011663ffffffff60201b82549160201b169063ffffffff60201b1916179055565b60025460081c165af1610a53611b3b565b50156102d157507f05acfb0b486dfbef3a6310083c898cf63872cb6808b645b95fcc50ad6536ac469160209151908152a360018055005b855163d5da0f3960e01b81528590fd5b60ff60016109c6565b8651630c8d9eab60e31b81528690fd5b865163c68bdd8160e01b81528690fd5b509051635f4329ad60e11b8152fd5b823461032e575f36600319011261032e576020905166038d7ea4c680008152f35b823461032e575f36600319011261032e57602090515f8152f35b50903461032e57602036600319011261032e5781355f5281602052805f209060018060a01b0392838354169260018101549160ff8360a01c169260ff8160a81c169063ffffffff6002850154916001600160801b03936003870154956001600160401b03986005828a01549901549c8b519c8d52841660208d0152600581101561031b578a8c01526003821015610c4157509282859360ff9a9896936102409d9a989660608e01528c6080838360b01c1691015260d01c1660a08c015280821660c08c01528160201c1660e08b015261ffff81881c166101008b015260501c166101208901528116610140880152828160801c1661016088015260c01c6101808701528181166101a08701528181841c166101c087015260801c6101e086015282166102008501521c161515610220820152f35b602190634e487b7160e01b5f525260245ffd5b503461032e5760a036600319011261032e57803591610c71611ab2565b90610c7a611ac8565b92606435916001600160801b03918284169283850361032e57608435946001600160401b03861680960361032e57610cb0611ba5565b610cb8611c5f565b885f5282602052835f20926001840180549860ff8a60a01c166005811015610df157610de1579260a0999795927f6c6b22be83a3869edda96bb821d6069724c34f94da7d437c8bf8661d3da97fea9b999795926005956001808e1b038091169b8c6bffffffffffffffffffffffff8f1b88541617875516998a60018e1b916affffffffffffffffffffff60a81b1617179055600254600285019061ffff60401b82549160681c169061ffff60401b19161790556003840180546001600160401b0360801b4260801b16906001600160401b0360801b19161790558301918254916001600160801b03199060801b16911617905501836001600160401b031982541617905561ffff60025460a81c16938151958652602086015284015260608301526080820152a2005b865163fc2bc70d60e01b81528390fd5b602184634e487b7160e01b5f525260245ffd5b823461032e575f36600319011261032e576020905162278d008152f35b823461032e575f36600319011261032e57602090516107088152f35b50903461032e578060031936011261032e57602091610e5a611ab2565b90355f525f8352815f209060018060a01b03165f52825260ff815f20541690519015158152f35b50903461032e578060031936011261032e57606091610e9e611ab2565b90355f526005602052815f209060018060a01b03165f52602052805f20549060ff8151926001600160801b0381168452818160801c16602085015260881c16151590820152f35b50903461032e5760208060031936011261032e57823591610f04611bc3565b825f52838252805f2060ff600182015460a01c16600581101561071457600303611038576002019384549463ffffffff80871661102857855f5260058552835f20335f528552835f208054976001600160801b0389168015610ab35760ff8a60881c16610aa35761ffff8061271093891c1683038181116110155791610f9391610fce97969594931690611b28565b0498600160881b9060ff60881b19161790555f19818354881c16011663ffffffff60201b82549160201b169063ffffffff60201b1916179055565b5f80808088335af1610fde611b3b565b50156102d15750907fc20a1a79e8eb35abdbdcf4dc2c21f96516f2e75a97fd2491853761eefbc67ee391519384523393a360018055005b601188634e487b7160e01b5f525260245ffd5b835163185babed60e21b81528390fd5b8151600162244bd160e11b031981528590fd5b823461032e575f36600319011261032e5760207f62e78cea01bee320cd4e420270b5ea74000d11b0c9f74754ebdbfc544b05a25891611088611be6565b611090611ba5565b600160ff19600254161760025551338152a1005b823461032e575f36600319011261032e57602090517fa49807205ce4d355092ef5a8a18f56e8913cf4a201fbe287825b095693c217758152f35b50903461032e5760ff916110f136611a92565b6110fc949194611c5f565b16916001831161123857835f5281602052805f209060018201805460ff8160a01c16600581101561071457600203611228578515908115611220576001905b600382101561120d5761ffff60a01b191660a89190911b60ff60a81b1617600360a01b1791829055938301805467ffffffffffffffff1916426001600160401b03169081179091557f40371fd8b30565aa2caa435c14badc5bbcaeb405bd45b3ccde0495370151dbc29560809590949193919260039163ffffffff9190156112035760b01c16925b63ffffffff60028201941663ffffffff19855416178094556001600160801b0391829101541692825195865260501c1660208501528301526060820152a2005b60d01c16926111c3565b602187634e487b7160e01b5f525260245ffd5b60029061113b565b825163a8c927ef60e01b81528590fd5b516306fd144d60e11b8152fd5b823461032e575f36600319011261032e57600254905160089190911c6001600160a01b03168152602090f35b823461032e575f36600319011261032e5760209060ff6002541690519015158152f35b50903461032e57602036600319011261032e578135916112b2611c5f565b825f5280602052815f2090600182019081549060ff8260a01c16600581101561031b57600103611349575060ff60a01b1916600160a11b17905560030180546001600160c01b03164260c081901b6001600160c01b0319169190911790915590516001600160401b039190911681527f8e68e8881f6ec8d2c55ef36e005c06585aa867503de9ca54a248047b562a24ff90602090a2005b845163644322bf60e11b8152fd5b50903461032e575f36600319011261032e57611371611be6565b6002549160ff8316156113b1577f5db9ee0a495bf2e6ff9c91a7834c1ba4fdd244a5e8aa4e537bd38aeae4b073aa6020838560ff191660025551338152a1005b9051638dfc202b60e01b8152fd5b503461032e57606036600319011261032e57803561ffff811680820361032e57602435906001600160401b0382169283830361032e576113fd611ac8565b94611406611be6565b82611510575b50505081611497575b50506001600160a01b038116918261142957005b60028054610100600160a81b031916600893841b610100600160a81b031617905580518181529081019190915267747265617375727960c01b606082015260208101919091527f12c9dccd129ff783f1c8228eacdfa8e334ddecb7ec5c9a79ec662a4aed3d012a90608090a1005b7f12c9dccd129ff783f1c8228eacdfa8e334ddecb7ec5c9a79ec662a4aed3d012a91608091600254906001600160401b0360b81b9060b81b16906001600160401b0360b81b191617600255845190858252600c868301526b1b585d18da151a5b595bdd5d60a21b60608301526020820152a15f80611415565b6103e8831161158457507f12c9dccd129ff783f1c8228eacdfa8e334ddecb7ec5c9a79ec662a4aed3d012a916080916002549061ffff60a81b9060a81b169061ffff60a81b1916176002558651908782526006888301526566656542707360d01b60608301526020820152a15f808061140c565b8651638bff87cf60e01b8152fd5b503461032e57602036600319011261032e57803591825f5281602052805f2060018101805460ff8160a01c1660058110156107145760020361167257906115f491600384015460c01c6001600160401b039384918260025460b81c1690611ade565b1642106116625760ff60a01b1916600160a21b1790559201805467ffffffffffffffff60401b191642909316604081901b67ffffffffffffffff60401b169390931790557f61e355ec7d2ed077067943504c7eae1589d3efd81478423c2e2347ebc0c0df01916020916106f1565b845163f5f519bf60e01b81528690fd5b5050505163a8c927ef60e01b8152fd5b50903461032e578060031936011261032e5761169c611ab2565b90336001600160a01b038316036116b857506106359135611d57565b5163334bd91960e11b81529050fd5b50903461032e578060031936011261032e5761063591356116eb600161061f611ab2565b611cdb565b823461032e575f36600319011261032e5760209061ffff60025460a81c169051908152f35b50903461032e57602036600319011261032e57602091355f525f82526001815f2001549051908152f35b823461032e575f36600319011261032e576020906001600160401b0360025460b81c169051908152f35b5061177336611a92565b9261177c611ba5565b611784611bc3565b60ff8416926001948585116119f75734156119e857835f5281602052825f20918683019160ff835460a01c1660058110156108e25788036119d9578184015460801c801515806119d0575b6119ba57506001600160401b038060058601541690811515918261199b575b505061198c57855f526005602052845f20335f52602052845f2080546001600160801b039384821661197e5750927f22f4c9bb73a93d9507392476fa412371d3d5e19e74d8951567b76a7483dca1a09695926119119592600295833416809360ff60801b9060801b169170ffffffffffffffffffffffffffffffffff19161717905589155f1461192357848401916118988354926001600160801b0360501b928460501c16611b0d565b6fffffffffffffffffffffffffffffffff60501b1990921660509290921b16179055805463ffffffff60b01b19811660b091821c63ffffffff168b0190911b63ffffffff60b01b161790555b01805467ffffffff00000000198116602091821c63ffffffff16890190911b63ffffffff60201b16179055565b80519384523460208501523393a38055005b6003840191611936835492828416611b0d565b6fffffffffffffffffffffffffffffffff199092169116179055805463ffffffff60d01b19811660d091821c63ffffffff168b0190911b63ffffffff60d01b161790556118e4565b87516354103a1760e11b8152fd5b50835163f14ef95760e01b8152fd5b816119b0929350600388015460801c16611ade565b1642115f806117ee565b8260249187519163e18499d160e01b8352820152fd5b508034106117cf565b50835163644322bf60e11b8152fd5b509051630813eb4360e01b8152fd5b5090516306fd144d60e11b8152fd5b823461032e575f36600319011261032e57602090517f68e79a7bf1e0bc45d0a330c573bc367f9cf464fd326078812f301165fbda4ef18152f35b823461032e57602036600319011261032e57359063ffffffff60e01b821680920361032e57602091637965db0b60e01b8114908115611a81575b5015158152f35b6301ffc9a760e01b14905083611a7a565b604090600319011261032e576004359060243560ff8116810361032e5790565b602435906001600160a01b038216820361032e57565b604435906001600160a01b038216820361032e57565b9190916001600160401b0380809416911601918211611af957565b634e487b7160e01b5f52601160045260245ffd5b9190916001600160801b0380809416911601918211611af957565b81810292918115918404141715611af957565b3d15611b93576001600160401b03903d828111611b7f5760405192601f8201601f19908116603f0116840190811184821017611b7f5760405282523d5f602084013e565b634e487b7160e01b5f52604160045260245ffd5b606090565b91908201809211611af957565b60ff60025416611bb157565b60405163d93c066560e01b8152600490fd5b600260015414611bd4576002600155565b604051633ee5aeb560e01b8152600490fd5b335f9081527f7d7ffb7a348e1c6a02869081a26547b49160dd3df72d1d75a570eb9b698292ec60205260409020547fa49807205ce4d355092ef5a8a18f56e8913cf4a201fbe287825b095693c217759060ff1615611c415750565b6044906040519063e2517d3f60e01b82523360048301526024820152fd5b335f9081527fa629f6981c2f6895a67dc766e8e03ff72d04a413d0d8773a3ca56e9e474032c160205260409020547f68e79a7bf1e0bc45d0a330c573bc367f9cf464fd326078812f301165fbda4ef19060ff1615611c415750565b805f525f60205260405f20335f5260205260ff60405f20541615611c415750565b90815f525f60205260405f209060018060a01b031690815f5260205260ff60405f205416155f14611d5157815f525f60205260405f20815f5260205260405f20600160ff1982541617905533917f2f8788117e7eff1d82e926ec794901d17c78024a50270940304540a733656f0d5f80a4600190565b50505f90565b90815f525f60205260405f209060018060a01b031690815f5260205260ff60405f2054165f14611d5157815f525f60205260405f20815f5260205260405f2060ff19815416905533917ff6391f5c32d9c69d2a47ea670b442974b53935d1edc7fd64eb21e047a839171b5f80a4600190565b60028101546001600160801b03808260501c168160038501541693612710611e0261ffff611df78886611b98565b9660401c1686611b28565b048403938411611af9576001015460a81c60ff16936003851015611e5b57611e3594600103611e535750935b1690611b28565b8115611e3f570490565b634e487b7160e01b5f52601260045260245ffd5b905093611e2e565b634e487b7160e01b5f52602160045260245ffdfea2646970667358221220a0011d7d747e5f45d3934d16f0e36352a2215d50f1985238a2c75e99e50f7cce64736f6c634300081800332f8788117e7eff1d82e926ec794901d17c78024a50270940304540a733656f0dad3228b676f7d3cd4284a5443f17f1962b36e491b30a40b2405849e597ba5fb5","linkReferences":{}},"methodIdentifiers":{"ADMIN_ROLE()":"75b238fc","CLAIM_WINDOW()":"9f34fc80","DEFAULT_ADMIN_ROLE()":"a217fddf","DEFAULT_MIN_BET()":"ac901ba3","DEFAULT_TIMEOUT()":"9add92e4","MAX_FEE_BPS()":"d55be8c6","ORACLE_ROLE()":"07e2cea5","bets(bytes32,address)":"8f6e689b","cancelMatch(bytes32)":"c82db8f9","claimPayout(bytes32)":"b4c63471","claimWindow()":"c5d37ae1","createMatch(bytes32,address,address,uint128,uint64)":"9f791b80","feeBps()":"24a9d853","getRoleAdmin(bytes32)":"248a9ca3","grantRole(bytes32,address)":"2f2ff15d","hasRole(bytes32,address)":"91d14854","lockMatch(bytes32)":"43f5b057","matchTimeout()":"1368711e","matches(bytes32)":"9fe9ada3","pause()":"8456cb59","paused()":"5c975abb","placeBet(bytes32,uint8)":"0e52bb49","refundBet(bytes32)":"df320b29","refundNoWinners(bytes32)":"8a5dc9f6","renounceRole(bytes32,address)":"36568abe","resolveMatch(bytes32,uint8)":"72c7606a","revokeRole(bytes32,address)":"d547741f","supportsInterface(bytes4)":"01ffc9a7","sweepCancelled(bytes32,address)":"f8da90cf","sweepUnclaimed(bytes32,address)":"b169e3ec","timeoutMatch(bytes32)":"3766c445","treasury()":"61d027b3","unpause()":"3f4ba83a","updateConfig(uint16,uint64,address)":"38de5aae","withdrawFees(bytes32)":"ebb71194"},"id":28}